:020000040000FA
:020000002B28AB
:080008002000911C0B2891104F
:100010002000A10A09000B1C14282700161E142812
:10002000161222008D16A0200900503449344334A2
:100030002034313436344634313437343134333487
:100040002034643465346D346F34203430342E34CD
:1000500031340A3400342500930121009D01200031
:100060008C018D018E0122008C018D018E012300F7
:100070008C0123008D0123008E0124008D012100BD
:10008000DF308C0057308D00BB308E002100703087
:10009000990021001A1E4A289C20A92017303C00F4
:1000A000A40014303D00A600333023009B00003034
:1000B00023009C008731B027803180268801A10170
:1000C000CA202000FA30A5000030A6007321642168
:1000D0004B3054216021013C031D6F280932200060
:1000E00021081F3C031C76282200772822006A285A
:1000F00058214B3A031D7F284B3054219B284B3A03
:10010000513A031D8528B5209B28513A533A031DC7
:100110008B28D0209B28533A523A031D9228220064
:100120008D169B28523A563A031D9828CA209B28C0
:10013000563A4530542168288B15270014160800BC
:100140002000FF300D1E0800890BA2280D1AA628DA
:100150000100073020009C00323020009B0021006D
:10016000911420000B178B17080021000C08542154
:1001700021000D08542122000C08542122000D08F2
:100180005421FF305421FF305421FF305421FF30DF
:100190005421080080308700153086006D2108004A
:1001A0000A30542181308700193086006D212100EA
:1001B0000C0891212030542181308700273086009F
:1001C0006D2121001A0891212030542181308700AF
:1001D0004D3086006D2120002108A02120305421BF
:1001E00081308700303086006D2120000B0891217E
:1001F0002030542181308700383086006D2127005F
:100200001608912120305421813087003F3086002C
:100210006D2127001408912120305421813087005E
:10022000463086006D212700150891210A3054219F
:1002300008005434523449345334413420340034A7
:1002400054345234493453344234203400344F341B
:10025000533443345334543441345434203400340C
:1002600049344E34543443344F344E342034003403
:1002700049344F3443344234463420340034493412
:100280004F344334423450342034003449344F34F2
:10029000433442344E3420340034543449344D34E1
:1002A00045345234203400348731BD278131080071
:1002B0008731D827813108008731DB278131080059
:1002C0008731C327813108008731CE27813108006B
:1002D0000D3054210A305421080016007F390319CB
:1002E000080054216D297530A700762977297829CF
:1002F00079297A297B297C29A70B7529A50B7329D4
:100300000130A602031873290800FF30A50703185F
:100310000301A6070318030125042604031D8529EC
:1003200008002000A3000830A400A30D03189A2998
:1003300030309B29313054212000A40B952908002E
:100340002000A300230E0F39AC21542120002308E4
:100350000F39AC2154210800F63E0318B1293A3E6A
:06036000B229413E080035
:100D000021001908FD00FD35FD35FD352000FF30BF
:100D1000FC00C327403A0319962E7D088F2E902E93
:100D2000FF3E031D8E2EFC0B892E08002000803014
:100D3000E80086307F39E9008030E8070130E93D7E
:100D4000FC014B30BD27D827433A031DAE2EFC26AD
:100D500023009201910192274327FB2E433A493AFF
:100D6000031DB52EFC262527FB2E493A523A031DBA
:100D7000BE2E0327FC2695274327FB2E523A573ACF
:100D8000031DCB2E03275627FC260D275F276B2735
:100D900070276327FB2E573A453A031DD52E0327AC
:100DA000FC265F276B276327FB2E453A443A031D39
:100DB000E02E03275627FC265F2786276327FB2E76
:100DC000443A543A031DE82E0327FC260D27FB2E38
:100DD000543A463A031DF22E0327FC269827940125
:100DE0004327FB2E463A5A3A031DF82E0100FB2EEC
:100DF0005A3A4530BD27A02ED8277C020319080097
:100E00004330BD279D33D827FC07E03923009100EC
:100E1000D827FC07230092000800230012087F391E
:100E2000FC008030110286307F397C3B031C0800B7
:100E30002000680823001102200069087C3B031C85
:100E4000013208005230BD270800FC011030FD00BF
:100E50007D08FF3E3227FC07BD27FD0B282F7C08AD
:100E6000BD2708000B0000340034003400340F3478
:100E7000FF340034003400340034013480348634CC
:100E8000803420341534FC0123002030FD0015147B
:100E9000000000001308FC07BD2723001408FC070E
:100EA000BD272300910AFD0B472FD9336627403019
:100EB000FD00D827FC071A00FD0B592F08000B086E
:100EC000FC008B1308007C088B000800283084008D
:100ED0000030850008009527230015169B27080081
:100EE000952723001512951666272030FD00120065
:100EF0009300120094007D080739013C031D812FE7
:100F000095129B27910AFD0B772F080098276627DB
:100F10002030FD0012009300840A9B27910AFD0BEC
:100F20008A2F080023001517080023001513080056
:100F30002300151308008B1B08001515553096006B
:100F4000AA3096009514000000009518A52F1511E1
:020F5000080097
:100F600023009D171D161D1323009E161E151E130C
:100F70001E1223001F169F1508002000111EBE2FF1
:100F800023009A0008002000911E003423001D1D3C
:100F900001342300190803194034803423009D13C1
:100FA0001D121D169D1723001908000019080800BE
:0C0FB0002000911ED92F23001908080012
:020000040001F9
:02000E00C439F3
:02001000FF3CB3
:00000001FF
