:020000040000FA
:0400000000000528CF
:0800080009002500930121000D
:100010009D018C018D018C018D0123008C0121003B
:1000200000308C0001308D002100EA3099001A1C4C
:0E003000172888018C1425238C1025231A28EC
:100600008C1425238C102523002BA530A100A10BD1
:10061000072B0800C730A1000D2BA10B0C2B0800E5
:100620002A30A1004E30A200A20B142BA10B122BDA
:1006300008006330A100A730A200A20B1D2BA10B64
:100640001B2B08001923192308000A30A3002223BA
:06065000A30B272B08009C
:020000040001F9
:080000000100020008000900E4
:02000E00C439F3
:02001000FF3DB2
:02E000004500D9
:00000001FF
